:020000040800F2
:10000000000002201D0B0008690B0008690B0008A6
:10001000690B0008690B0008690B0008000000006C
:100020000000000000000000000000005150000827
:10003000690B000800000000E14F0008AD4F000808
:10004000690B0008690B0008690B0008690B0008C0
:10005000690B0008690B0008413C0008253C0008BA
:10006000193C00080D3C0008013C0008690B000821
:10007000690B0008690B0008690B0008690B000890
:10008000690B0008690B0008690B0008690B000880
:10009000690B0008690B0008690B0008C53B0008E4
:1000A000690B0008690B0008690B0008690B000860
:1000B000B93F0008AD3F0008A13F0008690B0008E8
:1000C000690B0008690B0008690B0008690B000840
:1000D000690B0008690B0008690B0008C53F0008A0
:1000E000B13B0008690B0008690B0008690B0008A8
:1000F0005D3C0008690B0008690B0008690B0008EB
:10010000690B0008690B0008953F0008690B00089F
:10011000690B0008690B0008093E0008693C0008EB
:10012000690B0008690B0008690B0008690B0008DF
:10013000690B0008690B0008690B0008690B0008CF
:10014000690B0008690B0008690B0008690B0008BF
:10015000690B0008690B0008690B0008690B0008AF
:10016000690B0008690B0008690B0008690B00089F
:10017000690B0008690B0008690B0008000000000B
:08018000690B0008690B00087F
:1001900010B5054C237833B9044B13B10448AFF3C1
:1001A00000800123237010BD20000020000000000B
:1001B000A050000808B5034B1BB103490348AFF337
:1001C000008008BD0000000024000020A0500008AE
:1001D00081F0004102E000BF83F0004330B54FEAF8
:1001E00041044FEA430594EA050F08BF90EA020F65
:1001F0001FBF54EA000C55EA020C7FEA645C7FEAF8
:10020000655C00F0E2804FEA5454D4EB5555B8BF1A
:100210006D420CDD2C4480EA020281EA030382EA8B
:10022000000083EA010180EA020281EA0303362D1D
:1002300088BF30BD11F0004F4FEA01314FF4801CF0
:100240004CEA113102D0404261EB410113F0004F02
:100250004FEA03334CEA133302D0524263EB4303B9
:1002600094EA050F00F0A780A4F10104D5F1200E57
:100270000DDB02FA0EFC22FA05F2801841F10001B2
:1002800003FA0EF2801843FA05F359410EE0A5F186
:1002900020050EF1200E012A03FA0EFC28BF4CF0B7
:1002A000020C43FA05F3C01851EBE37101F000456D
:1002B00007D54FF0000EDCF1000C7EEB00006EEB7A
:1002C0000101B1F5801F1BD3B1F5001F0CD3490804
:1002D0005FEA30004FEA3C0C04F101044FEA44525B
:1002E00012F5800F80F09A80BCF1004F08BF5FEAE2
:1002F000500C50F1000041EB045141EA050130BDC2
:100300005FEA4C0C404141EB0101013C28BFB1F5D3
:10031000801FE9D291F0000F04BF01460020B1FA1E
:1003200081F308BF2033A3F10B03B3F120020CDAF1
:100330000C3208DD02F1140CC2F10C0201FA0CF0CF
:1003400021FA02F10CE002F11402D8BFC2F1200C34
:1003500001FA02F120FA0CFCDCBF41EA0C019040EA
:10036000E41AA2BF01EB0451294330BD6FEA040433
:100370001F3C1CDA0C340EDC04F11404C4F120021E
:1003800020FA04F001FA02F340EA030021FA04F330
:1003900045EA030130BDC4F10C04C4F1200220FA87
:1003A00002F001FA04F340EA0300294630BD21FAC5
:1003B00004F0294630BD94F0000F83F4801306BF8B
:1003C00081F480110134013D4EE77FEA645C18BF7F
:1003D0007FEA655C29D094EA050F08BF90EA020F16
:1003E00005D054EA000C04BF1946104630BD91EA0E
:1003F000030F1EBF0021002030BD5FEA545C05D111
:100400004000494128BF41F0004130BD14F580044F
:100410003CBF01F5801130BD01F0004545F0FE41C3
:1004200041F470014FF0000030BD7FEA645C1ABFF8
:10043000194610467FEA655C1CBF0B46024650EA2F
:10044000013406BF52EA033591EA030F41F400215B
:1004500030BD00BF90F0000F04BF0021704730B5E1
:100460004FF4806404F132044FF000054FF00001B6
:1004700050E700BF90F0000F04BF0021704730B577
:100480004FF4806404F1320410F0004548BF40424C
:100490004FF000013EE700BF42004FEAE2014FEAA1
:1004A00031014FEA02701FBF12F07F4393F07F4F7C
:1004B00081F06051704732F07F4208BF704793F07F
:1004C0007F4F04BF41F40021704730B54FF4607492
:1004D00001F0004521F000411CE700BF50EA010295
:1004E00008BF704730B54FF000050AE050EA01023E
:1004F00008BF704730B511F0004502D5404261EBAE
:1005000041014FF4806404F132045FEA915C3FF4EE
:10051000D8AE4FF003025FEADC0C18BF03325FEA8B
:10052000DC0C18BF033202EBDC02C2F1200300FA3C
:1005300003FC20FA02F001FA03FE40EA0E0021FA61
:1005400002F11444BDE600BF70B54FF0FF0C4CF44F
:10055000E06C1CEA11541DBF1CEA135594EA0C0F01
:1005600095EA0C0F00F0DEF82C4481EA030621EA3C
:100570004C5123EA4C5350EA013518BF52EA033577
:1005800041F4801143F4801338D0A0FB02CE4FF029
:100590000005E1FB02E506F00042E0FB03E54FF059
:1005A0000006E1FB03569CF0000F18BF4EF0010E51
:1005B000A4F1FF04B6F5007F64F5407404D25FEA4D
:1005C0004E0E6D4146EB060642EAC62141EA555100
:1005D0004FEAC52040EA5E504FEACE2EB4F1FD0C42
:1005E00088BFBCF5E06F1ED8BEF1004F08BF5FEAC0
:1005F000500E50F1000041EB045170BD06F0004672
:1006000046EA010140EA020081EA0301B4EB5C041E
:10061000C2BFD4EB0C0541EA045170BD41F4801116
:100620004FF0000E013C00F3AB8014F1360FDEBF3B
:10063000002001F0004170BDC4F10004203C35DA17
:100640000C341BDC04F11404C4F1200500FA05F39A
:1006500020FA04F001FA05F240EA020001F000423B
:1006600021F0004110EBD37021FA04F642EB0601B1
:100670005EEA430E08BF20EAD37070BDC4F10C04DB
:10068000C4F1200500FA04F320FA05F001FA04F29F
:1006900040EA020001F0004110EBD37041F100018B
:1006A0005EEA430E08BF20EAD37070BDC4F1200596
:1006B00000FA05F24EEA020E20FA04F301FA05F2FE
:1006C00043EA020321FA04F001F0004121FA04F2A6
:1006D00020EA020000EBD3705EEA430E08BF20EA76
:1006E000D37070BD94F0000F0FD101F000464000B0
:1006F00041EB010111F4801F08BF013CF7D041EA32
:10070000060195F0000F18BF704703F00046520035
:1007100043EB030313F4801F08BF013DF7D043EA06
:100720000603704794EA0C0F0CEA135518BF95EABC
:100730000C0F0CD050EA410618BF52EA4306D1D143
:1007400081EA030101F000414FF0000070BD50EA62
:10075000410606BF1046194652EA430619D094EAEC
:100760000C0F02D150EA013613D195EA0C0F05D1D6
:1007700052EA03361CBF104619460AD181EA03012A
:1007800001F0004141F0FE4141F470014FF00000E2
:1007900070BD41F0FE4141F4780170BD70B54FF07D
:1007A000FF0C4CF4E06C1CEA11541DBF1CEA1355FD
:1007B00094EA0C0F95EA0C0F00F0A7F8A4EB0504DF
:1007C00081EA030E52EA03354FEA013100F08880D6
:1007D0004FEA03334FF0805545EA131343EA12639F
:1007E0004FEA022245EA111545EA10654FEA002654
:1007F0000EF000419D4208BF964244F1FD0404F50D
:10080000407402D25B084FEA3202B61A65EB030568
:100810005B084FEA32024FF480104FF4002CB6EB25
:10082000020E75EB030E22BFB61A754640EA0C00A5
:100830005B084FEA3202B6EB020E75EB030E22BFE5
:10084000B61A754640EA5C005B084FEA3202B6EB26
:10085000020E75EB030E22BFB61A754640EA9C00E5
:100860005B084FEA3202B6EB020E75EB030E22BFB5
:10087000B61A754640EADC0055EA060E18D04FEA73
:10088000051545EA16754FEA06164FEAC30343EA13
:1008900052734FEAC2025FEA1C1CC0D111F4801FE0
:1008A0000BD141EA00014FF000004FF0004CB6E7D9
:1008B00011F4801F04BF01430020B4F1FD0C88BF78
:1008C000BCF5E06F3FF6AFAEB5EB030C04BFB6EB83
:1008D000020C5FEA500C50F1000041EB045170BD76
:1008E0000EF0004E4EEA113114EB5C04C2BFD4EBA3
:1008F0000C0541EA045170BD41F480114FF0000E27
:10090000013C90E645EA060E8DE60CEA135594EAA2
:100910000C0F08BF95EA0C0F3FF43BAF94EA0C0FA5
:100920000AD150EA01347FF434AF95EA0C0F7FF41A
:1009300025AF104619462CE795EA0C0F06D152EA6E
:1009400003353FF4FDAE1046194622E750EA410652
:1009500018BF52EA43067FF4C5AE50EA41047FF463
:100960000DAF52EA43057FF4EBAE12E74FF0FF3CC8
:1009700006E000BF4FF0010C02E000BF4FF0010C99
:100980004DF804CD4FEA410C7FEA6C5C4FEA430C12
:1009900018BF7FEA6C5C1BD001B050EA410C0CBF61
:1009A00052EA430C91EA030F02BF90EA020F0020C3
:1009B000704710F1000F91EA030F58BF994208BF2A
:1009C00090422CBFD8176FEAE37040F001007047E7
:1009D0004FEA410C7FEA6C5C02D150EA013C07D13E
:1009E0004FEA430C7FEA6C5CD6D152EA033CD3D089
:1009F0005DF8040B704700BF8446104662468C4683
:100A00001946634600E000BF01B5FFF7B7FF0028B5
:100A100048BF10F1000F01BD4DF808EDFFF7F4FFDE
:100A20000CBF012000205DF808FB00BF4DF808ED69
:100A3000FFF7EAFF34BF012000205DF808FB00BF8C
:100A40004DF808EDFFF7E0FF94BF012000205DF8AE
:100A500008FB00BF4DF808EDFFF7CEFF94BF012063
:100A600000205DF808FB00BF4DF808EDFFF7C4FF5C
:100A700034BF012000205DF808FB00BF4FEA4102AF
:100A8000B2F1E04324BFB3F5001CDCF1FE5C0DD9EC
:100A900001F0004C4FEAC0024CEA5070B2F1004F36
:100AA00040EB830008BF20F00100704711F0804F39
:100AB00021D113F13872BCBF01F00040704741F4FE
:100AC00080114FEA5252C2F11802C2F1200C10FA02
:100AD0000CF320FA02F018BF40F001004FEAC123E6
:100AE0004FEAD32303FA0CFC40EA0C0023FA02F38A
:100AF0004FEA4303CCE77FEA625307D150EA013360
:100B00001EBF4FF0FE4040F44000704701F000402F
:100B100040F0FE4040F40000704700BFDFF830D0E6
:100B2000002103E00B4B5B58435004310A480B4B48
:100B300042189A42F6D30A4A02E0002342F8043BE4
:100B4000084B9A42F9D302F0B5FF03F067FA7047F9
:100B500000000220A051000800000020200000201A
:100B600020000020242F0120FEE7000030B4124BAB
:100B7000124A13481349144C144D1A60586000224D
:100B80004FF07E50196312495D639C609C63DA608C
:100B90001A615A619A611A62DA61DA62DA631A6476
:100BA0005A649A641A65DA64DA65986298655962DB
:100BB000596530BC704700BF98000020B81E053E44
:100BC000713D8A3E8FC2F53D9A99193EE17A943E75
:100BD0000000C040DFF8F0C0BCF81230F0B47BB9C0
:100BE0003449BCF800200B6833481C880088083260
:100BF000A242B8BF63469A1C0A601880F0BC7047D6
:100C000067466246002411462046168831F8025F86
:100C1000AE4286EA050300F1010006D913800D8873
:100C20006B400B8015886B4013800928EDD101348F
:100C3000092C02F10202E6D1BCF80A20BCF8083007
:100C40001E4913445B08002227F8022BB942FBD14E
:100C50001B4A1849BCF800000860A2FB03231B09CB
:100C6000023B062B05D8DFE803F01D0417040F0430
:100C70000900144B0022DA61DA64BFE7114B4FF030
:100C80007C52DA61DA64B9E70E4B4FF07C514FF0D9
:100C90003F42D961DA64B1E70A4B4FF03F42DA6173
:100CA000DA64ABE7074B4FF03F414FF07C52D9611C
:100CB000DA64A3E700000020280100205000002093
:100CC000D34D6210980000203C000020134A144BC2
:100CD0000F2111601B681349DB065CBF0123136001
:100CE0000B68580602D4022313600B68190603D45C
:100CF0000C4B032111601B68D80503D4094B042158
:100D000011601B68990503D4064B052111601B680F
:100D10005B055CBF06231360704700BFF80000202E
:100D200010100240100C0240374B1B68002B57D0AC
:100D30002DE9F04F354F3E68042E83B05CDC8642CF
:100D400060D000EB8600324B324DDFF8CCB0DFF8DC
:100D5000CCA00538E84633F81030C3F30321C3F3C1
:100D6000031203F00F03ADF80010ADF80220ADF848
:100D700004304FF0000938F8024B002C40D0013C01
:100D8000FFF7A4FF032C07D8DFE804F017211C02AB
:100D9000C5F81CA0C5F84CA03B68B342F0D00F2B9F
:100DA000EED0012B18D0002228F8022C09F10109FD
:100DB000B9F1030F16D01E46DDE7C5F81CB0C5F823
:100DC0004CB0E9E7C5F81CA0C5F84CB0E4E7C5F89D
:100DD0001CB0C5F84CA0DFE7B9F1020FE3D0CFE7B4
:100DE00018467047386800220F3818BF0120EA61A2
:100DF000EA6403B0BDE8F08F002003B0BDE8F08FD7
:100E00003346D3E70120F4E754000020F800002027
:100E1000785100089800002000004040000040C0C9
:100E2000084B1B68590708D513F0080F064B0CBF79
:100E300001224FF0FF321A607047034B03221A6001
:100E4000704700BF100C024054000020134B1B6879
:100E5000022B05D0032B17D0012B0BD0002070479D
:100E60000F4B104A1B6810680533984294BF00204E
:100E7000012070470A4B0B4A1B68106804339842E4
:100E800094BF002001207047064A074B10681B687A
:100E9000984294BF00200120704700BF100100203D
:100EA00084000020800000207C00002012481349AC
:100EB000134A144B30B4144C086000F10E0100F1D9
:100EC0000B05116000221D602260431E03F8012FF4
:100ED0008B42FBD10D490E4A0A600E4C0E490F4B56
:100EE00023600B600E4D0F4C0F4903320E332A6006
:100EF0002360086030BC7047140100200801002006
:100F0000FC000020040100200C0100208C000020C7
:100F10000C000020840000208000002068000020D9
:100F2000640000207C000020000100204FF05003EE
:100F300083F31188BFF36F8FBFF34F8FFEE700BFBE
:100F400000B50B4B1B6883B000220133019201D026
:100F5000FFF7ECFF4FF0500383F31188BFF36F8F5F
:100F6000BFF34F8F019B002BFCD003B05DF804FB57
:100F70001400002030B41F4B1F4800221A60036881
:100F80001B6B1A68B2F1A53F03D15A68B2F1A53FB5
:100F900027D003680368194B1B68B3FA83F3DBB2ED
:100FA000C3F11F0303EB830315499A0001EB83038D
:100FB0008C5844B94FF0500383F31188BFF36F8FFF
:100FC000BFF34F8FFEE75D6802F108046A685A605C
:100FD00021448A4204BF52685A60D368036030BC1F
:100FE00070479A68B2F1A53FD3D1DB68B3F1A53F52
:100FF000CFD1D0E7202F012040010020CC2D0120AF
:1010000054010020034A044B1268D26812881A80E7
:10101000704700BF48010020502E0120054B1B687F
:1010200033B1054B1B68002B0CBF0220002070471A
:1010300001207047CC2E0120C42D0120024A1368E4
:1010400001331360704700BFC42D0120DFF80C008E
:10105000016841F4700101607047000088ED00E014
:1010600008B5054A13680BB9FFF760FF013B136031
:101070000BB983F3118808BD1400002008B54FF0A8
:10108000500383F31188BFF36F8FBFF34F8F074A6D
:1010900013680133012B136000D008BD044B1B689B
:1010A00013F0FF0FF9D0FFF741FF00BF140000203D
:1010B00004ED00E0F8B50446FFF7E0FF0A88134EA0
:1010C0004FF6FF739A4230880FD0114F2568D7F83A
:1010D00000C0A388654580B20BD0834209D80023A5
:1010E0000B800120FFF7BCFFF8BD0020FFF7B8FF21
:1010F000F8BDC51AADB2AA42F1D9121A3D6813441F
:1011000032880B8000202560A280EFE7082F0120A5
:10111000542E012008480068006880F308884FF0CA
:10112000000080F3148862B661B6BFF34F8FBFF33F
:101130006F8F00DF00BF000008ED00E0D0E9011272
:1011400003698A60416851605A68824204BF8268BC
:101150005A60002202611A68013A1A6018687047E2
:1011600030B40D884FF6FF739D4210D000F1080394
:101170001C465B681A88AA42FAD94B6099608C6059
:10118000616008610368013330BC03607047046923
:101190006368F2E7914208B50061818006D8D21AEF
:1011A000038B92B293420CD8012008BD9A4201D21F
:1011B0009942F9D2064B011D1868FFF7D1FF0020B4
:1011C00008BD044B011D1868FFF7CAFF002008BDC9
:1011D000440100205001002043684B609A688A60F7
:1011E000516099600861036801330360704700BF74
:1011F000F0B583B0FFF742FF002852D00446A36C3D
:101200008B4249D0294A09D2106884424CD01268D6
:10121000D66AB14234BF0026012604E01668A61B38
:10122000B6FA86F67609E56A214F6269A164AB4297
:10123000B4F9183008BFE162002B05EB8503A8BFA5
:10124000C1F1050107EB8303A8BF21839A421AD19C
:10125000211D08460191FFF771FF0199154A30B928
:101260001368012000FA05F523EA05051560E06A18
:1012700014680123834000EB8000234307EB8000C8
:101280001360FFF7A9FF3EB10B4B4FF080521A607D
:10129000BFF34F8FBFF36F8F03B0BDE8F040FFF790
:1012A000DFBE024B1C68AAE70026BCE74001002015
:1012B00054010020CC2D012004ED00E0F8B51E4BB8
:1012C0001E4E1D8833680446181D0F46ADB2FFF749
:1012D00035FF40B933681A49D86A0B680122824049
:1012E00023EA02030B604FF6FF739C421AD02C4492
:1012F000A4B23368A5429C8007D9124B18683168A4
:10130000BDE8F8400431FFF72BBF0F4B1868316878
:101310000431FFF725FF0D4A13889BB2A34288BF13
:101320001480F8BD002FE2D031680948BDE8F840CC
:101330000431FFF751BF00BF082F012040010020FA
:10134000CC2D01204C01002048010020502E01200E
:10135000E02E012010B5064B1B680C4603F1180166
:10136000FFF7FEFE20460121BDE81040FFF7A6BFB3
:101370004001002070B5C368DC6882B0002C2CD01E
:1013800004F118052846FFF7D9FE154B1B687BB101
:1013900014482946FFF720FF134BE26A1B68DB6AFB
:1013A0009A4285BF114B01200020186002B070BD29
:1013B000211D0F4D01910846FFF7C0FEE26A2E681D
:1013C0000C4801990123934002EB8202334300EB66
:1013D00082002B60FFF700FFDEE7FFF7A7FD00BFED
:1013E000C42D01205C2E012040010020202F01206F
:1013F000CC2D0120540100202DE9F0410446FFF7D7
:101400003DFE90F845506DB2002D16DDDFF880806E
:1014100000F12406012702E013F0FF0F0DD0636AEC
:10142000304653B1FFF7A6FF6B1E5DB20028F3D024
:1014300013F0FF0FC8F80070F1D1FF2384F8453096
:10144000FFF70EFEFFF71AFE94F844506DB2002D20
:1014500016DDDFF83C8004F11006012702E013F0EE
:10146000FF0F0DD02369304653B1FFF783FF6B1E8A
:101470005DB20028F3D013F0FF0FC8F80070F1D16F
:10148000FF2384F84430BDE8F041FFF7E9BD00BF19
:10149000202F01202DE9F04F504B1B6883B0002B0B
:1014A0007FD14F4B1D880135ADB21D80002D48D036
:1014B0004C4E33889BB29D425AD3DFF83091D9F815
:1014C00000301C68002C7FD0474FDFF83481DFF8F4
:1014D00034A1002427E00191FFF730FEDBF828203B
:1014E00001990BF1180012B1FFF728FE0199DBF802
:1014F0002C00DAF800300122824000EB80001A4311
:1015000007EB8000CAF80020FFF766FED8F800203D
:10151000D9F80000DBF82C10D26A0368914228BF8A
:101520000124002B53D0D9F80030DB68D3F80CB07D
:10153000BBF804200BF1040195420846CBD232805F
:101540001AE02A4B1A681268002A34D1284A18680F
:10155000284914681C6010600A6801320A601B6820
:101560001B68002B37D11F4E4FF6FF733380A0E767
:101570001D4FDFF88C800024D8F800301E48DB6A4D
:101580001E4903EB83039B00FA5803880B68022A69
:1015900028BF0124002B18BF0124204603B0BDE85A
:1015A000F08F154A1388002401339BB22046138024
:1015B00003B0BDE8F08F4FF0500383F31188BFF301
:1015C0006F8FBFF34F8FFEE7074FDFF834804FF682
:1015D000FF733380D0E7FFF715FD69E7C42D0120C5
:1015E000082F0120502E0120540100204801002026
:1015F0004C010020542E0120582E0120202F0120C4
:1016000040010020CC2D01202DE9F84F3A490B680C
:1016100043B94FF0500383F31188BFF36F8FBFF3CB
:101620004F8FFEE7FFF72AFD0B68013B0B600B684D
:10163000002B3CD1314B1B68002B38D0304E336827
:10164000002B39D0DFF8D080DFF8D090DFF8D0A0C1
:101650002C4D0127F368DC6804F1040B04F1180039
:10166000FFF76CFD5846FFF769FDE06AD8F80020E7
:1016700007FA00F300EB80001343594609EB8000A2
:10168000C8F80030FFF7A8FDDAF80030E26ADB6A3C
:101690009A4228BF2F603368002BDBD11A4B1B689E
:1016A0001B682BBB194B4FF6FF721A8005E0002018
:1016B000FFF7D6FCBDE8F88F124D154E3488A4B262
:1016C0004CB10127FFF7E6FE013CA4B200B12F6048
:1016D000002CF7D134802B68002BE8D00D4B4FF055
:1016E00080521A60BFF34F8FBFF36F8F0120DFE787
:1016F000FFF788FCE1E700BFC42D0120BC2D0120CD
:101700005C2E0120202F012048010020502E0120B6
:10171000582E012004ED00E0CC2D012054010020C2
:101720004001002068B170B50546FFF777FC88B925
:101730004FF0500383F31188BFF36F8FBFF34F8FC8
:10174000FEE74FF0500383F31188BFF36F8FBFF3B1
:101750004F8FFEE71646FFF771FC2C882EB9214209
:1017600008D0FFF751FF204670BD31EA0403F8D0DE
:1017700041F480611C4B1B6843B94FF0500383F365
:101780001188BFF36F8FBFF34F8FFEE7174E6FEADD
:101790004143326831686FEA534313831831281D7F
:1017A000FFF71AFD01214FF6FF70FFF787FDFFF7E6
:1017B0002BFF38B90E4B4FF080521A60BFF34F8F9A
:1017C000BFF36F8F32683368148BDB6A3268C3F102
:1017D00005031383A30501D5E4B2C4E7FFF74EFC6C
:1017E0002C88FFF73DFCF7E7C42D012040010020C5
:1017F00004ED00E02DE9F04786B04FF6FF73ADF839
:101800000E3058B1056C04468DB14FF0500383F390
:101810001188BFF36F8FBFF34F8FFEE74FF0500378
:1018200083F31188BFF36F8FBFF34F8FFEE7FFF78E
:10183000F5FB00286BD02846FFF720FCA36BDFF8F0
:10184000C892DFF8C882AD4F002B35D1BDF80E30FD
:10185000002B00F00C81002848D0FFF701FCFFF7B7
:10186000EDFBFFF70BFC94F84430FF2B04BF002383
:1018700084F8443094F84530FF2B04BF002384F8EB
:101880004530FFF7EDFB0DF10E0104A8FFF712FC48
:101890000646F8B9FFF7F2FBA36B002B45D0FFF724
:1018A000DFFB2046FFF7A8FDFFF7AEFE0120FFF7A4
:1018B000E5FBA36B002BC9D02268013BA363002A80
:1018C00000F0A9802369002B40F09580FFF7C8FB4A
:1018D000012518E02046FFF78FFDFFF795FEFFF783
:1018E000CDFBA36B53B1FFF7BBFBDFE7D9F80020BB
:1018F000B8F800300492ADF81430AEE7FFF7B0FB53
:10190000002D40F09280284606B0BDE8F087BDF873
:101910000E3043B14FF0500383F31188BFF36F8F44
:10192000BFF34F8FFEE7054686E7FFF799FB236875
:10193000A3B1BDF80E1004F12400FFF70BFD204603
:10194000FFF75AFDFFF760FE0028AFD14FF080533C
:101950003B60BFF34F8FBFF36F8FA7E7FFF78EFB9F
:10196000A568DDB1664EEA6A3368DB6A9A423AD20C
:10197000B5F91830002B04DB3368DB6AC3F10503CB
:101980002B83DFF88CA16B6902EB82020AEB8202E7
:10199000934207D03368DB6AEB620126FFF760FBF6
:1019A0003546C6E7291D08460191FFF7C7FB019997
:1019B000544B40B9EA6A18684FF0010C0CFA02F275
:1019C00020EA02021A6030681A68C06AE8620126DA
:1019D00006FA00F500EB80002A430AEB80001A604B
:1019E000FFF7FAFBDAE73368AE6CDB6A9E422CBF86
:1019F00000260126D2E704F11000FFF7BBFC002807
:101A00003FF464AF3D4B4FF080521A60BFF34F8FED
:101A1000BFF36F8F5AE73A4E33681BB13268D36C0D
:101A20000133D3643368A3604CE7FFF727FB636A95
:101A30001BB1236B1B88C3F10503A4689CB1E16C47
:101A400041B94FF0500383F31188BFF36F8FBFF399
:101A50004F8FFEE7A06CE26A834238BF0346934291
:101A600001D001290ED0FFF7FBFA00254BE7002D2E
:101A7000F9D04FF0500383F31188BFF36F8FBFF39A
:101A80004F8FFEE71E4909688C4225D0B4F9181023
:101A9000DFF87CA0E3620029A8BFC3F105036169F8
:101AA000A8BF238302EB82020AEB82039942DAD1B8
:101AB000211D08460191FFF741FB0199A8B1E06A99
:101AC000104B1D680122824014242A4304FB00A00D
:101AD0001A60FFF781FBC6E74FF0500383F31188CC
:101AE000BFF36F8FBFF34F8FFEE7064BE06A1A68B4
:101AF0000124844022EA04021A60E2E704ED00E0D7
:101B000040010020CC2D0120542E0120082F01205F
:101B1000540100202DE9804889B0DFED7E5A9FED09
:101B20007E5A7E4FDFF834B2DFF834827C4CFFF708
:101B3000A5FA7C4B1A887C4B083B01931FFA82FA6A
:101B4000FFF78EFA07F10E054FF00009774BDBED3A
:101B5000007A1B68764967EEA57A022B08BFF1EE82
:101B6000677AF2EE046A87EEA67A724B4FF00302B0
:101B70000A601A686C490CBF2D232B2302F8013C24
:101B80006C4B1960C7EEA56A0839BCEEC76AFCEE5B
:101B9000E66A16EE100A16EE903A03EB830676001C
:101BA00006EE906A00EB80004000B8EE666A06EE32
:101BB000900AF8EE666A37EE467A77EEE67ABCEE81
:101BC000C77AFCEEE77A17EE100A17EE906A0593D3
:101BD0003033137006F1300C00F130035370CDED4B
:101BE000077A82F802C08DED067A002311F8012BE6
:101BF0001344514A9142DBB2F8D15B424F49C3F3DF
:101C00000312092A03F00F030968CDE9032394BFE7
:101C1000303237320A70092B019A8CBF3733303398
:101C200016784B70454B444A1A60E6B14449236824
:101C30001A0600D4FEE7FFF709F9012816BF414B49
:101C4000D8F800301B683F4A08BFC7F8009001333E
:101C500003F8016C1360FFF7F9F8012811D011F8AF
:101C6000016F002EE3D1384B8BED005A1B6853B344
:101C70004FF0500383F31188BFF36F8FBFF34F8F83
:101C8000FEE7324BD8F80000186010F8012B52B173
:101C900023881B06FBD58DF80B202C4A9DF80B30B2
:101CA0001060A380F1E72A482A4B05602048C8F855
:101CB00000700260234A03F10F05176003F8019FCB
:101CC000AB42FBD1CBE7204A136801331360154BBD
:101CD0001B889BB20AF164065345B6B20ED2564534
:101CE00014D3FFF791FC38B91B4A4FF080531360AF
:101CF000BFF34F8FBFF36F8FB24627E7564505D22C
:101D0000F31A98B20021FFF7D9FAEAE7B342E8D212
:101D1000F6E700BF0000C842000000006800002095
:101D200000480040082F01200C000020F80000208F
:101D3000100100208C0000200F0000206400002013
:101D40000400002080000020C42D01207800002025
:101D50007C0000206700002004ED00E05800002017
:101D60008400002008B50B4B196809B1FFF7DEF8B5
:101D70001A6801321A60FFF7A1FAFFF745FC38B97B
:101D8000054B4FF080521A60BFF34F8FBFF36F8F38
:101D900008BD00BFC42D012004ED00E080B50C4B50
:101DA0000C4D1E680C4F0024012E0ED14FF47A709A
:101DB000EC61EC64FFF7D6FF3B88A3F57A72F92A51
:101DC000A3F1FA0301D9F92BF0D8FEF703FFEBE7F3
:101DD000F80000209800002028010020F0B583B012
:101DE00088B11E4D2B68834204460AD0FFF746F99E
:101DF0001B4B42699A4208D003B0BDE8F040FFF7A0
:101E00002FB903B0F0BDFFF791F8836A154A9342EA
:101E1000F2D0002BF0D1011D134E01910846FFF7BF
:101E20008DF9E26A3768114801990123934002EB6A
:101E300082023B4300EB82003360FFF7CDF92B6851
:101E4000E26ADB6A9A42D7D3094B4FF080521A609C
:101E5000BFF34F8FBFF36F8FCEE700BF400100206D
:101E6000E02E01205C2E0120CC2D01205401002009
:101E700004ED00E070B5FFF701F9002849D0374DB7
:101E80000446261D3046FFF759F930B9E06A344A56
:101E900000EB80039B00D35843B3A36A1BB104F14A
:101EA0001800FFF74BF92F483146FFF795F994F8E2
:101EB00054302D49012B04BF002384F85430FFF720
:101EC000CFF80B68D3B92B68A34200D070BD0B6864
:101ED0003BB3264B1B68002B30D04FF0500383F3ED
:101EE0001188BFF36F8FBFF34F8FFEE720490122A8
:101EF0000B68824023EA02030B60CEE7FFF7BEF8CF
:101F00001C4B1B681B683BB1FFF77CF8FFF7A8F878
:101F1000D9E7124D2C68B4E7174B4FF6FF721A80C1
:101F2000F4E71049154A0968126891420FD00F4B27
:101F30001B6873B1124B01221A6070BD114B4FF038
:101F400080521A60BFF34F8FBFF36F8F70BD2B604D
:101F500070BDBDE87040FFF70DB800BF4001002024
:101F600054010020E02E0120CC2E0120C42D0120A0
:101F7000CC2D012048010020502E0120BC2D012035
:101F8000202F012004ED00E02DE988481B4BDFF8ED
:101F90008CB0D3F800A0DFF88890DFF88880184F65
:101FA000184E194D194C5046FFF724FCFEF77EFFE2
:101FB000FEF7DCFD0023D9F80000CBF80030FFF776
:101FC00059FFD8F80000FFF755FF3868FFF752FFB8
:101FD0003068FFF74FFF2868FFF74CFF2068FFF7D6
:101FE00049FF0B4B1868FFF745FF0A4B1868FFF7CE
:101FF00041FF094B1868FFF7F1FED4E7D82E012006
:10200000342E0120F82D0120FC2D0120382E012036
:102010004C2E0120802E0120DC2E01205C000020AF
:102020001C2F0120482E012000F108034FF6FF71FC
:102030000022C0E90333018102604360704700BFA2
:10204000C8B138B5FEF7FAFF0B4B50F8044CA0F1BD
:10205000080519461B685A689442FAD8074A40F89E
:10206000083C0D6050F8043C11680B441360BDE857
:102070003840FFF7C9BA7047D02E01201C0000205D
:1020800080B5164CDFF86080154E164FDFF85CA067
:102090004FF0805915E0FEF7F1FFD8F80C30DD68FD
:1020A000281DFFF74BF83368013B33602368013B81
:1020B0002360FEF7D5FF286BFFF7C2FF2846FFF726
:1020C000BFFF2368002BE6D13B68012BF9D9CAF882
:1020D0000090BFF34F8FBFF36F8FF2E7C02D012049
:1020E000BC2D012054010020F42E012004ED00E05D
:1020F000F8B5FEF7A3FF28490B686BB9274A284CAF
:10210000284D294E22F00702C2E90045C4E90035F6
:102110007360326001260E60431E0A3336D80830E1
:1021200020F007010831814230D9204F38688142C0
:102130002CD81D4C236803E01A6822B11C461346B4
:102140005A689142F8D8164A93421FD01A682668F6
:1021500022605A68551A102D06F1080411D903EBB4
:10216000010C114ACCF804505960DCF804601546A3
:1021700012685168B142FAD3CCF80020C5F800C00B
:102180005A68821A3A60FFF73FFA02E0FFF73CFA1A
:1021900000242046F8BD00BF3C2E0120C0010020D5
:1021A000282E0120F82B0100D02E01201C00002039
:1021B000002850D02DE9F04F83B00446FEF73EFFD3
:1021C0000388066900F10C090B43B14503805CD01C
:1021D000DFF8D880DFF8D8A0002530467668078879
:1021E0007A05F9B240D4194230D0FA052C4A48BFDA
:1021F0000D43116800293DD0C76843F402430380B2
:10220000002F40D0391D0191FEF798FF0199084633
:10221000FEF794FFF86AD8F8002001994FF0010BFF
:102220000BFA00F300EB800013430AEB8000C8F8C0
:102230000030FEF7D1FF1B4BF96A1B68DB6A99423D
:1022400089BF194923882388C1F800B0B145C4D19A
:10225000EA4312B21BE04FF0500383F31188BFF33F
:102260006F8FBFF34F8FFEE731EA0302BDD0B14558
:10227000B3D1EDE74FF0500383F31188BFF36F8FB5
:10228000BFF34F8FFEE7FEF751FE4FF0FF321340D2
:102290002380FFF7B9F9208803B0BDE8F08F00BFB5
:1022A000C42D012040010020202F0120CC2D012031
:1022B0005401002050B110B50446FEF7DFFE00883F
:1022C00020EA01012180FEF7CBFE10BD4FF0500344
:1022D00083F31188BFF36F8FBFF34F8FFEE700BF0B
:1022E000F7EE007AB4EEE70AF1EE10FA30B41DDD35
:1022F000B0EE670A264BDFED277A53F82020264CF4
:10230000130920EE270A03F58013803302F00F0231
:1023100054F82000BDEEC00A9B021032012101FAE0
:1023200002F280ED000A9A6130BC7047FFEE007A3D
:10233000B4EEE70AF1EE10FA1BD5B0EE670A0024FE
:10234000134A154B52F8202053F82050130903F577
:10235000801380339B0202F00F02012101FA02F286
:102360002C609A61B5EEC00AF1EE10FAC2DA30BC08
:102370007047B5EEC00AF1EE10FAF3D5DFED057A3D
:10238000E0EE277AFDEEE77A17EE904AD8E700BF35
:10239000285100080000484350510008202810B57B
:1023A00004461AD0B6EE000A0720FFF799FF002274
:1023B000A2420D4904D00B88DB0708D5A242FAD10E
:1023C000BDE810409FED090A0720FFF789BF0B68A1
:1023D00043F0010301320B60F0E7BEEE000A072074
:1023E000FFF77EFFE3E700BF004001400000000070
:1023F0000D4D0E4E08B52B7993B103242020FFF725
:10240000CDFF9620FFF7AEFC2120FFF7C7FF4FF46A
:10241000FA70FFF7A7FC013CF0D101232C716B711E
:102420003068FFF727FDE8E790000020342E0120F8
:10243000012870B506462AD0BEEE000A0420FFF738
:102440004FFF022E1AD0032E43F2C82108BF4FF4CB
:10245000FA51194D194C002207E02B68180701D4D6
:10246000012E1CD02388DB070BD59142F5D1BDE8A6
:1024700070409FED130A0420FFF732BF41F288310C
:10248000E7E7236843F0010301322360EDE7B6EE8E
:10249000000A0420FFF724FF43F2C821D9E79FED8B
:1024A000090A0420FFF71CFFBDE870409FED040AF5
:1024B0000420FFF715BF00BF100C02400048014088
:1024C00000FF7F47000000002DE9F04385B0ADF824
:1024D0000620002800F082800E460446FEF79EFD8E
:1024E000002848D0FEF7CAFDA56B002D61D1BDF8CC
:1024F0000630002B39D0514A514B1268DFF8449115
:102500001B8802922F46ADF80C3004F12408FEF728
:10251000A7FDFEF793FDFEF7B1FD94F84430FF2BC5
:1025200008BF84F8447094F84530FF2B08BF84F846
:102530004570FEF795FD0DF1060102A8FEF7BAFD04
:1025400030BBFEF79BFDA36B002B50D0FEF788FD40
:102550002046FEF751FFFFF757F8FEF78FFDA56BFA
:102560003DBBBDF80630002BD1D1FEF779FD002030
:1025700005B0BDE8F083BDF80630002BB2D04FF0B7
:10258000500383F31188BFF36F8FBFF34F8FFEE7C4
:102590002046FEF731FFFFF737F8FEF76FFDA36B1C
:1025A000002BE2D0FEF75CFDFEF768FDA56B002D69
:1025B000D7D0226C52B1D4E9020399188142E1606C
:1025C00024BF2168E160304602F05CFD013DA56357
:1025D00023691BBBFEF744FD0120C9E74FF0500300
:1025E00083F31188BFF36F8FBFF34F8FFEE7FEF7C2
:1025F00037FDBDF806104046FEF7ACFE2046FEF75C
:10260000FBFEFFF701F80028CED14FF08053C9F848
:102610000030BFF34F8FBFF36F8FC5E704F1100099
:10262000FEF7A8FE0028D5D0064B4FF080521A6066
:10263000BFF34F8FBFF36F8FCCE700BF542E012045
:10264000082F012004ED00E000B5264B264D1C6844
:1026500083B04FF6FF720DF107012046FFF734FFFC
:102660009DF80730013B032BF3D8DFE803F02C1E65
:1026700010022E68012202213046FFF753F8042091
:10268000FEF752FB30460421FFF792FDE1E72E688A
:10269000012202213046FFF745F80320FEF744FBF4
:1026A00030460421FFF784FDD3E72E680122022182
:1026B0003046FFF737F80220FEF736FB304604219C
:1026C000FFF776FDC5E72E68012202213046FFF7AD
:1026D00029F80120FEF728FB30460421FFF768FDAA
:1026E000B7E700BFC42E0120302E012080B52A4E4E
:1026F000DFF8B090294F2A4D82B04FF080783468CF
:102700004FF6FF720DF107012046FFF7DDFE9DF841
:102710000730013B052BF3D8DFE803F01913382904
:10272000032401220221D9F80000FEF7FBFF4FF439
:102730001670FFF717FBC5F8008040F6C410FFF7CE
:1027400011FB4FF4807200232A603B70D7E7D9F861
:10275000000001220221FEF7E5FF0123C5F80080F9
:102760003B70CCE70123C5F800803B70C7E701222E
:102770000221D9F80000FEF7D5FF4FF41670FFF7DD
:10278000F1FAC5F8008040F21450D8E7C5F800808F
:102790004FF46170D3E700BF742E01205000002079
:1027A00018080240302E012080B5314B314E1D6893
:1027B000DFF8C880304FDFF8C8A082B001238DF861
:1027C00007304FF040094FF6FF720DF10701284620
:1027D000FFF77AFE9DF80730042B44D8DFE803F0BA
:1027E0002F0B3F3D03000420FFF722FE306802213B
:1027F000FFF760FDE7E73468002220460421FEF77A
:1028000091FF3B689A1E012A2BD9042B03D0012B80
:102810000CBF04230F238DF807300220FFF708FEBA
:1028200003234FF47A708DF80730FFF79BFA0320EB
:10283000FFF7FEFD20460221FFF73CFDC3E7FEF750
:10284000EFFAD8F80030012BBDD00120FFF7F0FDE2
:1028500030680221FFF7ACFCB5E73468E7E734687D
:10286000DBE70223D7E7FEF731FACAF80090AAE7C0
:10287000782E0120302E0120F80000205400002086
:102880005C0000202DE9F04385B0ADF8062000285B
:102890007DD00E460446002965D0FEF7BFFB002818
:1028A00054D00020DFF82C92DFF82C82854F07E00F
:1028B000FEF7D6FB2046FEF79FFDFEF7A5FE0120A2
:1028C000FEF7DCFBA26BE36B9A4269D3BDF80650BE
:1028D000002D7ED0002852D0FEF7C2FBFEF7AEFBE3
:1028E000FEF7CCFB94F84430FF2B04BF002384F8A0
:1028F000443094F84530FF2B04BF002384F8453062
:10290000FEF7AEFB0DF1060102A8FEF7D3FB00288F
:1029100056D1FEF7B3FBA26BE36B9A42C8D1FEF728
:102920009FFBBDF8061004F11000FEF713FD2046D2
:10293000FEF762FDFEF768FE0028C0D14FF080531D
:102940003B60BFF34F8FBFF36F8FB8E7BDF8063022
:10295000002BA7D04FF0500383F31188BFF36F8F84
:10296000BFF34F8FFEE7036C002B96D04FF0500360
:1029700083F31188BFF36F8FBFF34F8FFEE7D9F852
:102980000020B8F800300292ADF80C30A4E74FF008
:10299000500383F31188BFF36F8FBFF34F8FFEE7B0
:1029A000226CA56BDAB9226862B30135A563636A4C
:1029B000002B4FD1FEF754FB012005B0BDE8F0839A
:1029C0002046FEF719FDFEF71FFE002005B0BDE80A
:1029D000F083FEF745FB284605B0BDE8F08331469D
:1029E000606802F04FFB6368216CA2680B4493425D
:1029F0006360DAD30135A563636A22686260002BE5
:102A0000D8D027E0A668002ECFD02F4B1B689E425F
:102A100008D04FF0500383F31188BFF36F8FBFF3DB
:102A20004F8FFEE7F36C43B94FF0500383F31188E7
:102A3000BFF36F8FBFF34F8FFEE7F06AB16C013BBE
:102A40008842F36400D0A3B10135A563636AA26034
:102A5000002BAFD004F12400FEF78CFC0028A9D095
:102A6000184B4FF080521A60BFF34F8FBFF36F8F38
:102A7000A0E7311D08460091FEF760FB0099134A5C
:102A800030B9F76A13680120B84023EA00031360E5
:102A9000B36C0F48D2F800C0F362142707FB0300A1
:102AA00001279F40C3F10503338347EA0C07013533
:102AB0001760FEF791FBA563636A0022A260002BFA
:102AC000CED0C7E704ED00E040010020CC2D01206E
:102AD00054010020542E0120082F01200000000086
:102AE0002DE9804883B00F23BF4EC04DDFF81CB3E3
:102AF000BF4FDFF81CA38DF801304FF6FF7230682E
:102B000001A9FFF7E1FCBB4B4FF400621A609DED99
:102B1000019A95ED008A79EE488AF7EE007AF4EE94
:102B2000E78AF1EE10FA00F1B180FFEE007AF4EEE0
:102B3000E78A0F23F1EE10FA8DF803308DF802309A
:102B40008DF8013000F1B480DBF80040F7EE007A38
:102B5000F4EEE78AF1EE10FA55DDFFEE008AB4EEEE
:102B6000E88AF1EE10FA00F15581FFEE007AB4EE3A
:102B7000E78AF1EE10FA07DBB7EE007AB4EEC78A07
:102B8000F1EE10FA40F2B581F7EE008AB4EEE88A71
:102B9000F1EE10FA37DD18EE100AFDF77DFC8AA37E
:102BA000D3E90023FDF74CFF68B3B4EEE89AF1EEE9
:102BB00010FA19EE100A40F3B781FDF76DFC84A3FB
:102BC000D3E9002380468946FDF73AFF002840F00C
:102BD000A9817FA3D3E9002340464946FDF744FF7E
:102BE000002800F09F817CA3D3E90023404649469A
:102BF000FDF726FF002814BF0422032202238DF8CC
:102C000003208DF80230D7F80080FF214046FFF7FF
:102C100051FB9DF802309AF800209A4216D0043BEE
:102C2000022B0CD8744B1B68012B08D0734B00226D
:102C300018688DF801200DF10101FFF723FE704B9C
:102C4000002218680DF10201FFF71CFE9DF8033009
:102C5000A3423FF452AF0F2C3FF44FAF694B0DF13D
:102C6000030118680022FFF70DFE404601220421EF
:102C7000FEF758FD614801234FF6FF720DEB03018B
:102C800000688DF80130FFF7FDFD36E7FFEE007AB2
:102C9000F4EEE78AF1EE10FA7FF747AFB5EE409A0F
:102CA000F1EE10FA3FF441AF574A0023D37024E706
:102CB000B4EEE78AF1EE10FADBF8004040F2E6806D
:102CC000FFEE007AB4EEE78AF1EE10FA32DDB7EEED
:102CD000087AB4EEC78AF1EE10FA2BD8B4EEE79A70
:102CE000F1EE10FA06DBF7EE007AB4EEE79AF1EEB9
:102CF00010FA07D9FFEE007AB4EEE79AF1EE10FA77
:102D000000F13F81FFEE007AB4EEE79A0123F1EE85
:102D100010FA8DF8033000F1AF81C0F26881F7EE50
:102D2000007AB4EEE79AF1EE10FA94BF0523062379
:102D30008DF80230F7EE007AB4EEE78AF1EE10FA81
:102D40007FF704AF18EE100AFDF7A6FB1EA3D3E928
:102D50000023FDF775FE00283FF4F8AE032CF7EED4
:102D6000087A18BF0323B4EEE79A18BF8DF8033032
:102D7000F1EE10FA98BF012319EE100A98BF8DF8F2
:102D80000330FDF789FB10A3D3E900238046894671
:102D9000FDF756FE002800F0CC8011A3D3E90023F4
:102DA00040464946FDF718FA02460B46404649465A
:102DB000FDF750FE002800F0C28002238DF802309B
:102DC000C4E600BFAFF30080448B6CE7FBA90A4068
:102DD000B4E55C8AABAA1040333333333333164047
:102DE0000E2DB29DEFA7EA3F702E01205800002063
:102DF000302E0120180C024054000020782E0120B3
:102E0000742E0120C42E012090000020F800002024
:102E10005000002018EE100AFDF73EFB9EA3D3E9F8
:102E20000023FDF721FE00283FF49FAE19EE100AA3
:102E3000FDF732FB98A3D3E9002380468946FDF7CE
:102E400009FE002879D0B4EEE89AF1EE10FA4CBFF2
:102E500002230123F8EE047AB4EEE79AF1EE10FAB9
:102E60008DF8033067DB8EA3D3E900234046494643
:102E7000FDF7B4F902460B4640464946FDF7E0FD32
:102E800000286CD002238DF802306EE618EE100A8E
:102E9000FDF702FB80A3D3E90023FDF7E5FD002841
:102EA0003FF40EAF022CF8EE047A18BF0223B4EE02
:102EB000E79A18BF8DF80330F1EE10FA5FDB19EED8
:102EC000100AFDF7E9FA76A3D3E900238046894684
:102ED000FDF784F902460B4640464946FDF7B0FD32
:102EE000002874D002238DF80230694B0122DA7178
:102EF000E6E6B4EEE79AF1EE10FA04DBB4EEC79A18
:102F0000F1EE10FA41D9F7EE007AB4EEE79AF1EE5D
:102F100010FACCBF0322012202238DF803208DF882
:102F2000023031E6032269E6FDF7B6FA80468946AB
:102F30004FE6062342E70623A5E701238AE750A3CD
:102F4000D3E9002340464946FDF746F902460B46C1
:102F500040464946FDF77EFDC8B103232EE748A34E
:102F6000D3E9002340464946FDF738F902460B46AF
:102F700040464946FDF764FDC8B1032383E70623B5
:102F8000B1E702238DF80330D2E60122C4E73EA365
:102F9000D3E9002340464946FDF71EF902460B4699
:102FA00040464946FDF756FD18B3042306E736A30D
:102FB000D3E9002340464946FDF710F902460B4687
:102FC00040464946FDF73CFD20B304235BE72CA3B4
:102FD000D3E9002340464946FDF700F902460B4677
:102FE00040464946FDF72CFD28B303237BE7062323
:102FF0009EE6284B002240464946FDF7EDF80B4679
:10300000024649464046FDF725FD002814BF05232A
:103010000623D3E61F4B002240464946FDF7DEF863
:103020000B46024649464046FDF70AFD002814BFFC
:103030000523062327E714A3D3E900234046494686
:10304000FDF7CCF802460B4640464946FDF7F8FC32
:1030500008B1042347E70F4B002240464946FDF7DD
:10306000BDF80B46024649464046FDF7E9FC0028FC
:1030700014BF0523062336E7022359E6AFF3008089
:103080006891ED7C3F35F63FB4C876BE9F1AFF3F8E
:103090009000002000000440448B6CE7FBA90AC0AC
:1030A0000E2DB29DEFA7EA3F2DE98048DFF850A230
:1030B000854DDAF80040854FDFF848B2844EDFEDE9
:1030C000858A83B03868FEF795FB23783A2B06D1C2
:1030D000DBF8003013F8012C0D2A00F09180082253
:1030E00032607D4A202313603368082B0BD17B4B61
:1030F000002203F8012F9D42FBD1794B794ADAF87F
:1031000000401A60DEE7DAF800406378442B3ED0D6
:10311000754B1B68002B3DD19FED748A4FF0000862
:103120004FF000096D4B8DED018A002203F8012F4D
:103130009D42FBD16A4B6B4A1A6040465EA3D3E9BD
:1031400000234946FDF786FC40B95DA3D3E900237F
:1031500040464946FDF774FC0028B3D0F1EE007AF2
:10316000B4EEE78AF1EE10FA06D9F9EE007AB4EE81
:10317000E78AF1EE10FAA5DB5D4B0022186801A981
:10318000FFF780FB5B4B1868FEF728FE9AE7A378F1
:10319000322BBDD1DBF800100439091B8AB24FF67F
:1031A000FF739A4200F08480114601312144204689
:1031B000002310F8012B13448842DBB2F9D15B42A3
:1031C000DBB24D4A11680A784978392A02F00F02B9
:1031D00088BF0932392901F00F0188BF0931120176
:1031E0000A43D2B29A4211D0444A9FED408A00234A
:1031F00013603D4A4FF0000813604FF0000991E75B
:103200001B780A2B14BF0822002269E7E378392BC8
:10321000EAD82279392A03F00F03E5D802F00F0229
:1032200042EA0313062BDFD16379A279392B03F02D
:103230000F0388BF0933392A02F00F0288BF093211
:103240001B011343202BCFD12046082210F807CFB3
:10325000002110F8013F392B03F00F0E8CBF0EF147
:10326000090303F00F039340043A1943131DF0D1EF
:10327000B1F5A06F28BF4FF4A06140F6035303FBE4
:1032800001F1490B07EE901AF8EEE77A164A87EE3D
:10329000A88ABCF12D0F4FF00003136008BFB1EEF8
:1032A000488A18EE100AFDF7F7F88046894639E794
:1032B000002386E7AFF300809A9999999999A93FDD
:1032C0009A9999999999A9BF22010020182F012054
:1032D0005C0000200000C8421800024013010020DA
:1032E00000010020140100200C010020000000005B
:1032F000702E0120802E01200401002010010020EA
:1033000008010020FC00002080B50C4DDFF834805F
:103310000B4F4FF0FF340126AB7B3BB9013C052C32
:10332000FAD8FDF7C3FDAB7B002BF7D0002238683D
:1033300088F803601146FFF7A5FAF0E714010020B2
:10334000182F0120900000202DE9804885B0FDF75E
:103350000DFCFDF7ABFD5549554BDFF89481DFF8C7
:1033600094B1544FDFF89091534E544D544CDFF8C4
:103370008CA10020032208601A6068E0FDF750FD70
:10338000D8F80000002301281A460DF10E0112D0D2
:103390004C488DF80E300068FFF774FA4A4B032151
:1033A0001868FDF725FF484B1868FEF717FD40F633
:1033B000AC50FEF7D7FCFDF789FCDBF800300120AC
:1033C00083424FF000020DF10F01C8F8000014D045
:1033D0003E4B18684FF001038DF80F30FFF752FA9B
:1033E0003B4B03211868FDF703FF394B1868FEF7C4
:1033F000F5FC41F28830FEF7B5FC04213868FDF792
:10340000F7FE3868FEF7EAFC324B03211868FDF737
:10341000EFFE0321D9F80000FDF7EAFED9F800001D
:10342000FEF7DCFC03213068FDF7E2FE3068FEF7B2
:10343000D5FC4FF40071216027494FF400134FF081
:1034400000620A602B60254B1868FEF713FD2023ED
:103450002B60234BFF211868FEF72CFF4FF480727E
:10346000DAF8003022601F4A10681F4AC3F30023B5
:10347000032113700193FDF7BBFE019B002B3FF46A
:103480007DAF1A4B00220DF10D0118684FF00103BA
:103490008DF80D30FFF7F6F9124B1868FEF79EFC19
:1034A00041F20400FEF75EFC68E700BF5C0000200C
:1034B000100100204C2E01201C2F0120180002407A
:1034C00018080240782E0120FC2D0120C42E012076
:1034D000382E0120802E0120180C0240DC2E012005
:1034E000302E0120F82D012050000020742E0120E4
:1034F00054000020F8000020482E0120140802404B
:1035000010B584B090B10A4B1C6864B10022ADF8CC
:10351000081001920390FDF781FD204601A9FFF7F5
:10352000B1F904B010BD204604B010BDFDF7FEFC9B
:103530000C2F0120F8B51A4E30680EE0C368DC6825
:103540001F88251D2846FDF7F9FD236A2046984768
:1035500094F828305B0708D430680368002BEDD15D
:10356000104B1A6818603260F8BD238B3B449BB245
:103570009F423946204606D23068A38024612946FE
:10358000FDF7EEFDE9E7FFF7BBFF0028E4D14FF0C0
:10359000500383F31188BFF36F8FBFF34F8FFEE7A4
:1035A00044010020500100202DE980489C4DDFF8A7
:1035B00084922E88DFF8808285B04FF0000A994B04
:1035C0001C682168002900F0A280E368B3F800B00D
:1035D000FDF734FDFDF752FDB9F80070BFB2FDF7FD
:1035E0003FFDB742C0F0AA80BB452F8040F2C580A6
:1035F0000026D8F80040FDF741FD94F84430FF2B39
:1036000008BF84F844A094F84530FF2B01D184F81A
:1036100045A0FDF725FDA36B002B00F09E80204602
:10362000FDF7EAFEFDF7F0FF002840F090807E4AAB
:103630004FF080531360BFF34F8FBFF36F8FD8F8F5
:1036400000402E88002201A92046FEF73DFF0028F9
:10365000B5D0019B002BF5DB039C636913B1201DE2
:10366000FDF76CFDFDF70AFDB9F80070BFB2FDF77C
:10367000F7FCB7425FD3019B2F80092B00F2CB8070
:10368000DFE803F005050535213C0505352194F8F3
:103690002820BDF80830218B42F00102194484F83B
:1036A000282089B23A462046FDF774FD38B1236AD6
:1036B0002046984794F82830590774D42F88D8F8B2
:1036C00000403E46BEE794F82820BDF8083023832A
:1036D00042F0010284F82820002B00F093803B4444
:1036E00099B220463B463A46FDF754FDE7E794F889
:1036F000283023F0010384F82830E0E794F82830DC
:103700009A0726D523F0010384F82830D7E7FDF780
:1037100095FCFDF7B3FCB9F80070BFB2FDF7A0FC53
:10372000BE420BD8414B2F801B681E68B6FA86F646
:103730008B4676095DE7FFF7FDFE9CE7FFF7FAFE93
:103740003E462F80FDF760FFD8F800407AE72E88CC
:1037500078E72046FEF774FCB1E7354B196804F1B1
:1037600024001831FDF738FD002E48D1ABEB0700DF
:1037700080B23146FDF7A2FD51E7FDF745FFE36852
:10378000DC68201DFDF7DAFC94F8283058071DD4BA
:1037900023F0010384F82830236A20469847D8F89C
:1037A00000402E884EE7BDF80810238B194489B2DB
:1037B0002046FFF7A5FE002880D14FF0500383F389
:1037C0001188BFF36F8FBFF34F8FFEE7218B5944F2
:1037D0003A4689B25B462046FDF7DCFC0028DBD088
:1037E00059462046FFF78CFE0028D5D14FF05003F4
:1037F00083F31188BFF36F8FBFF34F8FFEE74FF650
:10380000FF70B6E74FF0500383F31188BFF36F8F5B
:10381000BFF34F8FFEE7D8F800403E4612E700BFE7
:10382000442E01204401002004ED00E0500100205E
:1038300040010020082F01200C2F0120F8B5074679
:103840000D46164601FB00F021B95020FEF750FC52
:1038500068B9F8BDB0FBF1F39F422ED04FF0500392
:1038600083F31188BFF36F8FBFF34F8FFEE70446DA
:103870002060C4E90F75FDF701FCD4E90F1322683D
:10388000626001FB03F1CB1A134400200A44FF21BC
:10389000A063C4E9022384F8441004F1100084F802
:1038A0004510FEF7C1FB04F12400FEF7BDFBFDF758
:1038B000D7FB84F84C602046F8BD5030FEF718FC6A
:1038C0000028C6D004465030D2E700BF2DE9F843A7
:1038D0009600804630460D469946FEF709FC0028C2
:1038E0007FD007465820FEF703FC0446002800F06E
:1038F0008380076332463846A52101F0BBFB226B6B
:103900006F1E04F13303093517F8011F03F8011F77
:10391000397809B1AF42F7D1043E164426F00706C4
:10392000002328F00102C9F10501218384F83D300C
:10393000E3646361A362236584F85430C4F82C9077
:10394000C4F8489024616462474946F8082C46F858
:10395000203C6FF00202A6F144034FF0807046F85D
:10396000242C46F8040C46F80C1C2360089B3F4EA0
:103970001C60FDF783FB3E4A136801331360336814
:10398000002B41D0DFF82881D8F800306BB3E26A11
:103990003849394F0B68D7F800C038480133012542
:1039A0000B602364142105FA02F343EA0C0301FBC4
:1039B0000200211D3B60FDF70FFCFDF751FBD8F81D
:1039C0000030FBB13268E36AD26A9A421AD22C4BB9
:1039D0004FF080521A60BFF34F8FBFF36F8F2846AE
:1039E00001E04FF0FF30BDE8F8833368E26ADB6A3C
:1039F000934298BF3460CBE73846FEF721FB4FF087
:103A0000FF30F0E72846EEE734601368012B03D05F
:103A1000DFF89C80E26ABBE718481A4F1A4DDFF8BE
:103A20009080FEF701FB1948FEF7FEFA1848FEF7F2
:103A3000FBFA1848FEF7F8FA1748FEF7F5FA384689
:103A4000FEF7F2FA2846FEF7EFFA1448FEF7ECFA12
:103A50001348FEF7E9FA1348FEF7E6FA124A134B49
:103A60001760E26A1D6093E7410F000840010020E3
:103A7000BC2D0120C82D0120CC2D01205401002097
:103A800004ED00E0002E0120142E0120680100202A
:103A90007C01002090010020A40100205C2E012068
:103AA000F42E0120E02E0120480100204C010020CE
:103AB000CC2E01203849394BD1F88820384842F4BF
:103AC0007002C1F888201A68002142F001021A60D1
:103AD00099601A6822F0847222F480321A60586069
:103AE0001A6882B022F480221A60D9600091019194
:103AF0001A6842F480321A6003E0009AB2F5A04FCF
:103B000009D01A6802F400320192009A0132009240
:103B1000019A002AF1D0214B1B6813F4003318BF1F
:103B200001230193019B012B05D01B4B4FF0006239
:103B30009A6002B07047194B1A491A6C1A4842F041
:103B400080521A640A6842F440420A609A689A6095
:103B50009A6842F400429A609A6842F4A0529A60CD
:103B600058601A6842F080721A601A689201FCD597
:103B70000E4A0A4940F2057010609A6822F003026A
:103B80009A609A6842F002029A608B6803F00C0314
:103B9000082BFAD1C9E700BF00ED00E00038024071
:103BA000103000240070004008544007003C0240E0
:103BB000034B5A69520544BF4FF480625A61704703
:103BC000003C01400D4B5A69520644BF40225A61E5
:103BD0000A4B5A69100644BF80225A61074B5A6942
:103BE000D10544BF4FF480725A61044B5A69920563
:103BF00044BF4FF400725A61704700BF003C01405F
:103C0000014B10225A617047003C0140014B0822D1
:103C10005A617047003C0140014B04225A617047D1
:103C2000003C0140044A0549138801339BB202203D
:103C300013804861704700BF88000020003C0140AD
:103C4000044A0549138801339BB20120138048615F
:103C5000704700BF60000020003C0140014B002283
:103C60001A827047001C0040F0B52DED028B83B026
:103C7000FDF72CF8FDF7D4F8574B584F186A584EFB
:103C8000FCF70AFC4CA3D3E90023FCF75DFC0446D7
:103C900038680D46FCF700FC0B46024629462046D4
:103CA000FCF79CFAFCF7EAFE0023019333883860A6
:103CB0009BB2002B50D04B4B4B4C5B6B0093009B4B
:103CC0000098FCF7C7FB3EA3D3E90023FCF73CFCBC
:103CD00002460B463CA1D1E90001FCF75FFD3CA385
:103CE000D3E90023FCF730FCFCF7C8FE23889BB225
:103CF00008EE100A002B36D03C4B5B6B0193019B06
:103D00000198FCF7A7FB2EA3D3E90023FCF71CFCCA
:103D100002460B462CA1D1E90001FCF73FFD2CA384
:103D2000D3E90023FCF710FCFCF7A8FEB5EE408AAF
:103D30000023F1EE10FA338007EE900A238031D091
:103D4000F5EE407AF1EE10FA0FD037EE888AF6EEF3
:103D5000007A28EE278A08E0234C9FED258A2388E5
:103D60009BB2002BC8D133802380224B22491B6891
:103D70002248022B224BD3ED007A08BFB1EE488ACD
:103D8000F4EE487AF1EE10FA08BF0A6883ED008A73
:103D90000CBF013200220A600022028203B0BDEC97
:103DA000028BF0BDF5EE407AF1EE10FA18BFB0EEDE
:103DB000678ADAE7AFF300809A9999999999B93FA0
:103DC000F168E388B5F8F43E6FF085C954C1C03F8F
:103DD00048E17A14AE47D13F980000203C01002012
:103DE000600000200008004088000020000400401F
:103DF00000000000F8000020240100200014004012
:103E00005800002000000000F8B55D4C5D4EB4F98C
:103E100000005D4D07EE900AF8EEE77A002717EEF6
:103E2000900AFCF739FB52A3D3E90023FCF78CFB83
:103E300051A3D3E90023FCF7B1FCFCF71FFEB6F950
:103E40000030286207EE903AF8EEE77A276017EE26
:103E5000900AFCF721FB46A3D3E90023FCF774FB8F
:103E600045A3D3E90023FCF799FCFCF707FE2C4699
:103E700028652B46376005F1600293ED077AD3ED94
:103E8000087AD3ED046AD3ED095A93ED066AD3EDAF
:103E9000004A77EE677AB1EE655A37EEA67A37EECA
:103EA000C66AB4EEE57AF1EE10FA83ED047AC8BF83
:103EB000B0EE657AB4EEC57AC8BFC3ED045AF1EE30
:103EC00010FA44BFB0EE457A83ED045AC3ED037A8D
:103ED00093ED015AC3ED067A67EEA47AD3ED025A48
:103EE000D3ED0A6A83ED056AE7EE057A3033B1EE69
:103EF000667AE6EE257AF4EEE67AF1EE10FA43ED14
:103F0000017AC8BFF0EE667AB4EEE77AC8BF43ED37
:103F1000016AF1EE10FAC8BF03ED017A9342ACD109
:103F2000206D1A4DFCF7B8FA13A3D3E90023FCF770
:103F30000BFB064628680F46FCF7AEFA02460B4616
:103F400030463946FCF74AF9FCF798FD94ED0B0A28
:103F500028600820FEF7C4F994ED170A0920FEF73F
:103F6000BFF90B4B00221A82F8BD00BFAFF30080EF
:103F70006DEE98CDA360133F7B14AE47E17A843F8A
:103F80002404014024000040980000203C0100204F
:103F900000100040014B00221A827047000C0040C4
:103FA000014B00221A82704700080040014B00229A
:103FB0001A827047000400404FF0804300221A82AA
:103FC000704700BF30B40A4A0A4B15681C680A499A
:103FD0000A4A08E01368888818700133AB4294BF1E
:103FE0001846204610600B889B06F3D430BC7047FF
:103FF000FC000020080100200048004000010020D3
:10400000044B1B681BB1044B01221A607047FCF77C
:10401000B1BF00BFC42D0120202F01202DE9F04F9A
:10402000BC4FBD4CBD483B6826680568BC49BD4ACD
:1040300043F4C00343F01F0331432A433B6097B06E
:104040002160026072B6B84BDFF864A3DFF864B396
:10405000DFF86483DFF864E3DFF864C31B68DBF830
:104060000020BAF80050D8F80040DEF80000DCF874
:104070000060DFF85093A7F5505722F07F4257F8C1
:10408000101C0593A94B1B680393A94B1B6806934F
:10409000A84B1B680793A84B1B680893A74B1B688A
:1040A0000493A74B1B680993A64B1B680A93A64B66
:1040B0001B680B93A54B1B680C9322F0FF02A44BCB
:1040C00042F0194245F0085524F07F641B680D93B7
:1040D00042F0330245F4081544F04C74CBF800204C
:1040E00020F07F40CAF80050C8F80040994C9A4B25
:1040F00040F04C5046F48076CEF80000CCF80060DA
:1041000025680E95954D96482E680F96A4F20444A6
:10411000066825681095934D2868119092480468A8
:10412000083005F6F83500682D6812908F4821F4A4
:1041300070410268139241F48051D9F8002047F889
:10414000101CD96A41F40001D962586B88490143B7
:10415000596322F0704E049ADAF800040399103F74
:1041600022F4FF470C9A22F4634C25F47F42049218
:10417000139A0A9D04F4706820F470407D4C02F498
:10418000706B20F0F000CDF830B02C4040F4805B34
:10419000109D79480D9A2840784D1540049A2EF4C8
:1041A0007F6E22F0CF02049248F02A486E4A4EF009
:1041B000805E48F480084EF4086E4BF0100BCDF88A
:1041C0000CB0A2F2FC72C9F800E021F46F41C2F811
:1041D000FC8721F0F60127F074072CF03B0CC2F8A5
:1041E00000C0C2F80014C2F8007C02F50062049F0F
:1041F0001760A2F6E43226F406461268DFF87CB1B6
:104200005F49DFF8C481DFF8C4E1DFF8C4C1DFF83B
:10421000C4911746524A26F0EF06166044F488040B
:10422000484E02F5026244F4807412683460A6F5C8
:104230008056043E40F44A6040F00A00306045F089
:104240002845434845F00A150560039ECAF80064F6
:104250000B98089C4B4E4C4D82464C480AEA000A8B
:10426000CDF810A0A246434C0E980AEA040400EAD6
:104270000B0B186B0894099C0390A2463D4C4448D4
:104280000AEA040A059CCDF824A0A246414C0AEA99
:10429000040A069CCDF814A02140079C04EA0808F3
:1042A000129C04EA0E0E0F9C04EA0C0C119C04EA0A
:1042B000090927F07F440C9FBA46374F4AEA070A9C
:1042C000049FCDF828A0BA46344F4AEA070A089F4F
:1042D000CDF810A0BA46324F4AEA070A099FCDF836
:1042E0001CA0BA462F4F4AEA070A059FCDF820A026
:1042F000BA462D4F4AEA070A2C4FCDF814A041EADE
:10430000070A07F1367707F5653707F282274EEA85
:10431000070761E03038024040380240443802402C
:10432000FF01041003410700000802400408024096
:10433000080802400C08024000100240041002402D
:10434000081002400C100240000402400404024025
:10435000080402400C04024000200140000002401A
:10436000040002400C000240000C02400C0C024011
:1043700020888112CF0000C0000FC33F30F0F0034F
:10438000C3000F03FFA42880005014403FF0F00347
:104390008BB90700FF000003A55015008F050AA484
:1043A0001068991520AA222A3CA0A554280A0FA813
:1043B000240C024024040240201002402008024045
:1043C0000070004024000240C3000003000FC00042
:1043D000FF03C33F0003C33F0997039FCDF818A015
:1043E00007433846CB4FDFF864A3DFF864E34CEAB9
:1043F000060644F0085C0A9C3C60A7F60C07049C87
:104400003C604BF0400BC7F80CB0079CC7F8004C61
:10441000089CC7F8084C07F58067059C3C60069C23
:10442000DFF830B348F4B241C7E902410999C7F84F
:10443000081422F47F42B849B84C0E6049EA0505D9
:1044400042F4EE42CD60C1F820C0C1F824281863C0
:104450001969B34DB34AB448DFF8FC82DFF8FC9227
:10446000DFF8FCC241F47C3141F4FC711961D96878
:104470000D43DD60596841F480715960996841F4D9
:10448000407141F0020199601168116091680C431C
:104490009460D1680843D0601168092021F0C00100
:1044A00011605060116821F400711160116841F4CD
:1044B000A0611160116841F400611160116841F45C
:1044C00000511160116841F440311160116841F0F0
:1044D00010011160116841F0110111609A6842F0F9
:1044E00001029A609D68DAF80020D9F80040DBF8F4
:1044F0000010DEF8000045F08046D8F8005022F4A5
:10450000E04245F00805039522F07002DCF8005007
:1045100042F0700224F4E044A7F53F4722F48062A1
:1045200024F0700420F48850090CCC3F45F4004579
:1045300022F0040220F01100090424F480640495A0
:1045400041F0A70142F0040224F0040440F001000D
:104550003D689E60CAF80020C9F80040CEF800000F
:10456000CBF80010039BC8F80030049BCCF8003057
:104570002D0C6E4B6E4CC822AAF5006A2D043D60CE
:10458000B6EE000A1A600420FDF7AAFEDAF8003041
:10459000DFF8D0E1DFF8D0C1D8F80060DEF8001015
:1045A000DCF800202568A9F5006923F4E04323F036
:1045B0007003D9F8000043F07003A7F5FE6723F4F9
:1045C0008063ABF2FC7B46F0010623F0040320F489
:1045D000E0403C68C8F8006043F00403C82620F0BF
:1045E000700021F48851120CCBF8006021F0110109
:1045F000CAF8003012044E4BDFF870A1DFF870816A
:1046000020F4806041F0010142F0A70220F0040094
:1046100045F0080544F40044C9F80000B6EE000A6D
:10462000CEF800100720CCF800201D603C601E462C
:10463000404C414FDFF83C91FDF752FE3F4A404B62
:1046400010681A6823683468DFF82CC1DFF82CE1A1
:10465000DCF80010A6F59536A6F5EE76120C366855
:1046600003961204374E42F0530235680A92039AB9
:104670000495150C2D040395049D334A45F001055E
:1046800004953D6845F0010505951268ABF5983B2A
:10469000120CABF1200B12040692DBF8005045F02F
:1046A00001050795DAF8002042F001020892D9F8D6
:1046B00000502D0C2D040995D8F8002042F001027D
:1046C0000B92DEF800501A4A44F0010445F001054F
:1046D000CEF80050090C1460000CA2F5973242F29B
:1046E000CF04A2F5EC720904000421432043CCF866
:1046F0000010A2F58062C2F800041B0C0A9810603A
:104700001B04A2F5806243F4D16343F007031360F6
:1047100036E000BF0C0C0240000002404C2001407B
:10472000FF0F003F10640240280100202C48014088
:1047300000400140280800400014004028100040BC
:10474000280C00400C140040241000401848014080
:104750002048014028480140004801401C480140D1
:1047600044480140204001402840014000100040E2
:104770000C0C0040240C004028140040000C0040A9
:10478000BC4B039D1D60049D3560059D3D60A3F5F8
:104790008063069A1A60079DCBF80050089ACAF801
:1047A0000020099DC9F800500B9AC8F800204FF46A
:1047B0007A74C3F80844A3F57E7364211C60C3F8BF
:1047C0000014A3F580634CF2503CA6F6F436C3F80F
:1047D00000C03368A84A0493A84B11681F680B9166
:1047E000A749A8480D6803950468A74DA7482968FC
:1047F0000568A74BDFF8CCE2A2F5805208381268B2
:104800000895A44D00682D680690A348006807909D
:10481000A2480668099600F5A15027F4E04706680B
:104820009F480C9606680596A0F5806027F07007F3
:1048300006680A96C0F82CC00B98079E24F4E04A3C
:1048400047F4C844089F20F4885C1A4003980394F6
:104850003B40049C069F04EA0E0B01EA0E0107EAA6
:104860000E0706EA0E0E099E2CF0110C26F07F08AA
:104870000C9ECDF82CC04FEA16490B9E46F011064F
:104880000696039E46F064060396059E41F21114B7
:104890004FEA104C40F201204BEA000B0143234346
:1048A00007434EEA000046F0010E0A9E0493724B45
:1048B00022434FEA0C4C48F0540446F00108069E8F
:1048C0001E604CF4D16C6E4B4CF0070CC3F800C06A
:1048D0002AF0700A03F59F5314332AF4806A2AF0F1
:1048E000040AC3F800A0039E43F8046C6D4E664BA7
:1048F000C6F800B006F5805614364FF0C80CC6F85E
:1049000000C0C3E9001225F07F05A3F57F73049A68
:104910001A6045F05405C3F8E853083BC3E900703A
:104920005E48614D04604FEA094900F5A15049F025
:104930005309C0F800905A485C49C0F800E0A0F55F
:104940008060DFF884B1C0F800802B68049305F51F
:1049500090350868AA68564E03905648564B04682E
:104960003768DBF80000DFF864A1DFF86491DFF856
:104970006481DFF864E1DFF864C142F00302AA60F9
:104980001A6842F001021A60039A3E4622F0800241
:1049900042F4005226F00F06DF6803920596049E4B
:1049A00027F0010746F001060496DF60039F47F0F9
:1049B0002C070397059FA1F53F5124F00F0240F605
:1049C0000374083922433C4309940F6847F4404775
:1049D0000597DAF80040240C24040694D9F8006006
:1049E000360C36040796D8F800703F0C4FF080451F
:1049F0003F0408972C68DEF8006044F00104370C8F
:104A0000DCF800602C6005F5C055049C2C6005F5B1
:104A100040550C35039C2C6005F53B45000CC5F852
:104A2000FC200004224A099C146040F4B670CBF8C4
:104A30000000059A0A60069CCAF80040079AC9F867
:104A40000020089AC8F800201C4A4FF0FF313F04AC
:104A500046F00106CEF80070CCF800601160A2F5B7
:104A60008232FC3511609A68154D42F001029A605D
:104A7000AA6835E0241400402018004018180040AF
:104A8000280400401C1800401C080040200400407E
:104A90005555FFFF080800401C0400400804004072
:104AA0000008004018080040001800400C48004072
:104AB0000800004008040140003C01402C04014073
:104AC00000380140FCFCFFFF08480040341800405B
:104AD000381800402804014028000040000401402C
:104AE00042F03002AA601A6842F002021A60DA68E4
:104AF00042F00202DA609A6822F002029A60A44B45
:104B00004FF400025A604FF480025A6080225A60CB
:104B1000402119601A604FF480721A604FF48022AD
:104B20005A6062B6FCF722F8032200210120FEF74A
:104B300085FE984A106018B100221146FDF7A2FECA
:104B4000954C96499648009403238222FEF7BEFEB8
:104B50002068FDF78FF9934B93490093822202233B
:104B60009248FEF7B3FE032200210120FEF766FE05
:104B70008F4A106018B100221146FDF783FE8D4C5C
:104B80008D490094012382228C488D4F8D4E8E4D8D
:104B9000FEF79CFE20688D4CFDF76CF98C49009760
:104BA000012382228B48FEF791FE38688A4FFDF779
:104BB00061F98A490096012382228948FEF786FE20
:104BC0003068884EFDF756F9874900950123822207
:104BD0008648FEF77BFE2868854DFDF74BF9854931
:104BE0000094012382228448FEF770FE2068834CE3
:104BF000FDF740F982490097012382228148FEF7A0
:104C000065FE3868FDF736F97F4900960123822258
:104C10007E48FEF75BFE3068FDF72CF97C49009575
:104C2000012382227B48FEF751FE2868FDF722F916
:104C300001237949009482227848FEF747FE2068D4
:104C4000FDF718F9002204210120FEF7F7FD744B4F
:104C500001210546002208461D60FEF7EFFD714B5D
:104C600001210646002208461E60FEF7E7FD6E4B56
:104C700001210746002208461F60FEF7DFFD6B4B4F
:104C80000121804600220846C3F80080FEF7D6FDC9
:104C9000674B81461C20C3F80090FDF729FA0446B3
:104CA00020B1002320F8043BFDF7BEF9614B1C60E6
:104CB000ADB1A6B19FB1B8F1000F10D0B9F1000F9E
:104CC0000DD05D4B00935D495D4800238222FEF7C5
:104CD000FDFD012810D0013005D05A4B1B68002083
:104CE00017B0BDE8F08F4FF0500383F31188BFF386
:104CF0006F8FBFF34F8FFEE7534DFCF7BFF92C6862
:104D0000002C00F0E680FCF7ABF92B684BB14F4B61
:104D100000934F494F4801234FF48272FEF7D6FDAE
:104D200040B94FF0500383F31188BFF36F8FBFF387
:104D30004F8FFEE70128CED14FF0500383F3118847
:104D4000BFF36F8FBFF34F8F434B444C444D454AE5
:104D50004FF6FF71198000232860238014684248B1
:104D6000844200F0A4801068404A904200F0A8807D
:104D70003F4A404C1078C0B2159011701278D2B2F0
:104D80008DF853200722184622609DF853307BE0AF
:104D900000E100E0D82E0120C82E0120B850000804
:104DA000891F0008DC2E0120C45000084933000888
:104DB000182F01201C2F0120CC50000809330008B7
:104DC000482E0120FC2D0120F82D0120342E012039
:104DD000D4500008151B0008382E0120DC500008B4
:104DE000A92700084C2E0120E4500008ED260008F9
:104DF000802E0120EC500008F1230008142F012020
:104E0000F050000849260008F8500008A9300008B2
:104E100000510008E12A0008085100089D1D000803
:104E2000702E0120742E0120C42E0120782E012026
:104E30007C2E0120302E0120402E01201051000830
:104E400081200008180000200C2F0120102F0120C5
:104E500020510008A9350008502E0120082F0120FC
:104E6000CC2E012000ED00E071C20F4170C20F4155
:104E700000E400E0B82D01209DF853305B00DBB268
:104E80000A468DF8533001209DF853301B0602F17D
:104E9000FF31F1D410B1032A226040D04FF050030B
:104EA00083F31188BFF36F8FBFF34F8FFEE74FF08F
:104EB000500383F31188BFF36F8FBFF34F8FFEE76B
:104EC0004FF0500383F31188BFF36F8FBFF34F8F01
:104ED000FEE7284F284E3846FDF7A6F83046FDF786
:104EE000A3F8264A264B17600C2122460A201E6092
:104EF000FEF7A4FC286000283FF405AF214A03E038
:104F00000134082C3FF4FFAE52F83430002BF7D1B7
:104F100002EBC4011C4B42F834304860F3E6159AAA
:104F20001A481B4B1B491C4ED2B24FF440752560EA
:104F300002701A68194C1A481A4D42F470021A602D
:104F40001A6842F070421A60002307220B60336037
:104F500025600A600360FCF779F8134A136843F090
:104F600040431360FCF7D6F8FFF74AF8FBF7E8FF79
:104F7000B3E600BFD02D0120E42D01204401002024
:104F800050010020842E01201851000800E400E0A8
:104F900020ED00E010E000E018E000E014E000E0A8
:104FA000140000203F90020034EF00E008B54FF0FD
:104FB000500383F31188BFF36F8FBFF34F8FFCF75C
:104FC00069FA18B1034B4FF080521A60002383F343
:104FD000118808BD04ED00E00000000000000000A2
:104FE000EFF30980BFF36F8F154B1A681EF0100F97
:104FF00008BF20ED108A20E9F04F10602DE909006C
:105000004FF0500080F31188BFF34F8FBFF36F8FC5
:10501000FEF7F6FF4FF0000080F3118809BC196815
:105020000868B0E8F04F1EF0100F08BFB0EC108A0F
:1050300080F30988BFF36F8F704700BFAFF3008024
:1050400040010020000000000000000000000000FF
:10505000074B19680868B0E8F04F80F30988BFF380
:105060006F8F4FF0000080F311887047AFF300801E
:105070004001002002440346934200D1704703F8E8
:10508000011BF9E70A44914200F1FF3300D1704758
:1050900010B511F8014B03F8014F9142F9D110BD41
:1050A000F8B500BFF8BC08BC9E467047F8B500BF15
:0850B000F8BC08BC9E467047E5
:1050B8005345542F52455345540000005354415210
:1050C800540000004576656E747300004D61696C8C
:1050D80000000000436C7574636800004272616BE5
:1050E80065000000476173004765617200000000B9
:1050F8004D6F644275730000517565756500000059
:10510800494E49540000000049444C450000000045
:10511800546D725100000000546D72205376630084
:105128002E0000002F0000004A0000004E00000082
:105138004700000042000000480000004D00000049
:105148004C0000001D0000003408004038080040F2
:105158003C080040400800403448014034440140C5
:1051680038400140344001403418004038180040AD
:1051780000001200430042003400000043034203D1
:105188002100120200002200310012033300000047
:04519800B501000855
:04519C009101000875
:1051A0003C0000203A4430303630302B3030304133
:1051B000410D0A00AAAAAAAA04000000F82B0100C7
:0400000508000B1DC7
:00000001FF
